:100000000C9434000C9451000C9451000C94510049
:100010000C9451000C9451000C9451000C9451001C
:100020000C9451000C9451000C9451000C9451000C
:100030000C9451000C9451000C9451000C945100FC
:100040000C9451000C9451000C9451000C945100EC
:100050000C9451000C9451000C9451000C945100DC
:100060000C9451000C94510011241FBECFEFD8E026
:10007000DEBFCDBF11E0A0E0B1E0EAE9F1E002C0EF
:1000800005900D92AA30B107D9F721E0AAE0B1E0BE
:1000900001C01D92AB30B207E1F70E946F000C94D3
:1000A000CB000C9400008FEF8AB91BB884B915B847
:1000B00087B918B80895E1EBF0E08081836380830D
:1000C000E0EBF0E08081816280831092B400539A6B
:1000D00023982B9A24982C9A25982D9A08950E945B
:1000E00053000E945B0081E03EEF2FE71B992BC07D
:1000F000109200014FEF59EF90E041505040904076
:10010000E1F700C000001C9915C090910A019923E5
:1001100089F09091B4009F5F9093B400EFE9FFE005
:100120003197F1F700C000009091B4009E3F10F0AD
:100130003093B4001D9924C090910A0191110FC011
:100140001092B400D3CF909100019111DCCF909127
:100150000A0180930001982790930A01D4CF9091CF
:10016000B40091509093B400EFE9FFE03197F1F7BC
:1001700000C000009091B400923010F48093B4005D
:1001800090910A019923E1F29091B4009111AECFC0
:0A0190002093B400ABCFF894FFCF2A
:0A019A00010500040003000300004B
:00000001FF
