:100000000C9434000C9451000C9451000C94510049
:100010000C9451000C9451000C9451000C9451001C
:100020000C9451000C9451000C9451000C9451000C
:100030000C9451000C9451000C9451000C945100FC
:100040000C9451000C9451000C9451000C945100EC
:100050000C9451000C9451000C9451000C945100DC
:100060000C9451000C94510011241FBECFEFD8E026
:10007000DEBFCDBF11E0A0E0B1E0ECEFF0E002C0E8
:1000800005900D92AA30B107D9F721E0AAE0B1E0BE
:1000900001C01D92AB30B207E1F70E9461000C94E1
:1000A0007C000C9400008FEF8AB91BB884B915B896
:1000B00087B918B80895239A219A2298549A2C98AF
:1000C00008950E9453000E945B0091E01C9908C0B3
:1000D0001092000180910A01882361F02B9AF6CFDB
:1000E000809100018111F6CF80910A0189278093C8
:0C00F0000A01F0CF2B98EACFF894FFCF64
:0A00FC0001040002000100030000EF
:00000001FF
