:100000000C9434000C9451000C9451000C94510049
:100010000C9451000C9451000C9451000C9451001C
:100020000C9451000C9451000C9451000C9451000C
:100030000C9451000C9451000C94D9000C94510074
:100040000C9451000C9451000C9451000C945100EC
:100050000C9451000C9451000C9451000C945100DC
:100060000C9451000C94510011241FBECFEFD8E026
:10007000DEBFCDBF11E0A0E0B1E0E0E3F2E002C0FE
:1000800005900D92A231B107D9F721E0A2E1B1E0CC
:1000900001C01D92A931B207E1F70E940D010C9435
:1000A00016010C9400008FEF8AB91BB884B915B8FB
:1000B00087B918B8089584B5826084BD80E187BD92
:1000C000EEE6F0E0808182608083789485B581607F
:1000D00085BD549A539A529A23982B9A24982C9A15
:1000E00025982D9A559A569A5D9A089580911801EF
:1000F000882361F05C9880911701882349F05B9810
:1001000080911601882331F05A9808955C9AF3CFB4
:100110005B9AF6CF5A9A089580910001909101015F
:10012000092E000CAA0BBB0B409112015091130138
:10013000609114017091150184179507A607B70700
:1001400058F45D9B0AC05D98109212011092130141
:10015000109214011092150108955D99F5CF5D9AE2
:10016000F3CF1B9909C081E0809318018093170198
:10017000809316010C948C001C9B12C01D9B10C018
:1001800081E0809318011C9B0EC081E080931701D1
:100190001C9902C01D9B0AC081E08093160108953E
:1001A00010921801F0CF10921701F2CF10921601A1
:1001B00008951F921FB61F9211242F938F939F9320
:1001C000AF93BF938091120190911301A0911401FC
:1001D000B09115010196A11DB11D81302AEF920742
:1001E000A105B10588F48093120190931301A093A7
:1001F0001401B0931501BF91AF919F918F912F91F1
:100200001F901FBE1F90189510921201109213019B
:100210001092140110921501EECF0E9453000E941B
:100220005B000E94B1000E947600FBCFF894FFCFE4
:10023000640005000400030006000500020003003E
:020240000400B8
:00000001FF
