:100000000C9434000C9446000C9446000C9446006A
:100010000C9446000C9446000C9446000C94460048
:100020000C9446000C9446000C9446000C94460038
:100030000C9446000C9446000C9446000C94460028
:100040000C9446000C9446000C9446000C94460018
:100050000C9446000C9446000C9446000C94460008
:100060000C9446000C94460011241FBECFEFD8E03C
:10007000DEBFCDBF22E0A0E0B1E001C01D92A630FE
:10008000B207E1F70E941D010C9430010C940000AE
:100090008CE284B92A9A80E58CBD8CB583608CBDD6
:1000A00008954EBD2A980DB407FEFDCF2EBD0DB4A8
:1000B00007FEFDCF8EBD0DB407FEFDCF6EBD0DB4A6
:1000C00007FEFDCF2A9A0895CF9320E04FE060E02D
:1000D0008FE00E94510021E04CE061E08CE00E9442
:1000E000510020E049E060E089E00E94510020E0FA
:1000F0004AE060E08AE00E945100C1E020E04C2F1D
:1001000060E08C2F0E945100CF5FC930B9F7CF91CA
:100110000895CF92DF92EF92FF920F931F93CF93A8
:10012000DF93CDB7DEB760970FB6F894DEBF0FBE92
:10013000CDBFAC0198E0DE011996FD01892F119227
:100140008A95E9F79E012F5F3F4FF90111929A9529
:10015000E9F7FA01808140E850E0481B5109FFE7C8
:10016000FF2E01E010E08F2D90E0841795070CF52D
:1001700079018D01DD24D394F70121917F01F801EC
:1001800061918F014D2D8D2D0E945100D394F9E086
:10019000DF12F2CF60960FB6F894DEBF0FBECDBF70
:1001A000DF91CF911F910F91FF90EF90DF90CF9053
:1001B0000895880F991FFB01E80FF91F0190F08146
:1001C000E02D8081E181F0E0893068F0E20FF31FDB
:1001D0008850680101C0CC0C8A95EAF780818C298F
:1001E0008083FA94C0CFEA0FFB1FF3CF1AB814B87C
:1001F00017B808950C94480023E0DC012C93119665
:100200001C92FB01E250FF4F0190F081E02D89E04C
:10021000808384E08183FB01E450FF4F0190F081F3
:10022000E02D98E09083818366507F4FDB01ED9154
:10023000FC9197E09083818308950E94F6000E94CC
:1002400048000E94640064E071E084E092E00E9453
:10025000FC0064E071E084E092E00E948900FFCF3E
:04026000F894FFCF40
:00000001FF
