:100000000C9434000C9451000C9451000C94510049
:100010000C9451000C9451000C9451000C9451001C
:100020000C9451000C9451000C9451000C9451000C
:100030000C9451000C9451000C9451000C945100FC
:100040000C9451000C9451000C9451000C945100EC
:100050000C9451000C9451000C9451000C945100DC
:100060000C9451000C94510011241FBECFEFD8E026
:10007000DEBFCDBF22E0A4E0B1E001C01D92AA30F6
:10008000B207E1F711E0A0E0B1E0ECE1F7E002C077
:1000900005900D92A430B107D9F70E946B020C9421
:1000A0008C030C9400008CE284B92A9A80E58CBD04
:1000B0008CB583608CBD08954EBD2A980DB407FEA3
:1000C000FDCF2EBD0DB407FEFDCF8EBD0DB407FED6
:1000D000FDCF6EBD0DB407FEFDCF2A9A0895CF93D4
:1000E00020E04FE060E08FE00E945C0021E04CE007
:1000F00061E08CE00E945C0020E049E060E089E083
:100100000E945C0020E04AE060E08AE00E945C001F
:100110002FEF4BE06FEF8BE00E945C00C1E020E02E
:100120004C2F60E08C2F0E945C00CF5FC930B9F784
:10013000CF910895AF92BF92CF92DF92EF92FF924C
:100140000F931F93CF93DF93CDB7DEB760970FB6B2
:10015000F894DEBF0FBECDBF8C0198E0DE0119968A
:10016000FD01B92E1192BA94E9F79E012F5F3F4F1E
:10017000F90111929A95E9F7F801808100E810E001
:10018000081B11098FE7D82EEE24E394F12C8D2D56
:1001900090E080179107DCF5FA0160818181482F9A
:1001A0004150550BFA01862F90E0693008F450C099
:1001B000EA0FFB1F099741E050E001C0440F8A9508
:1001C000EAF78081842B808379018D01DD24D3942B
:1001D000F70121917F01F80161918F014D2D8D2D46
:1001E0000E945C00D394F9E0DF12F2CF60960FB664
:1001F000F894DEBF0FBECDBFDF91CF911F910F915D
:10020000FF90EF90DF90CF90BF90AF900895880F50
:10021000991FFB01E80FF91FC080E181E150F0E078
:100220008C2D90E06894BB24B3F8BC1468F4EA0FFA
:10023000FB1F0997570101C0AA0C8A95EAF7808134
:100240008A298083DA94A3CFE20FF31F0197F2CFBC
:10025000E20FF31F0197AFCF08951AB814B817B87B
:1002600008950E9453008AB18F708AB98BB1806F54
:100270008BB90895CF93DF93EA0123E0FC0120833B
:100280001182FB01E250FF4F89E0808384E081838B
:10029000329798E090838183329797E090838183AF
:1002A0000E94190360E170E00E94A5028F5F8883BD
:1002B0000E94190368E070E00E94A5028F5F8983A5
:1002C000DF91CF910895DC018C9190E8981BE92F84
:1002D000F0E0EE0FFF1FE60FF71F9F3758F0119663
:1002E0008C918130A9F0882361F08230C1F0833095
:1002F000E1F0089582818083838181839F5F3296BC
:10030000ECCFFB01E250FF4F80818F5F8083089527
:10031000FB01E250FF4F81818F5F81830895FB01D4
:10032000E250FF4F80818150F1CFFB01E250FF4F3F
:1003300081818150F2CFFB01E250FF4F80818131FA
:1003400040F081E080838181893038F081E08183D1
:1003500008958111F8CF80E1F5CF8111F9CF88E0C0
:10036000F6CFCF92DF92EF92FF920F931F93CF932E
:10037000DF936C01EB018A017B012EEFE20EF11C91
:10038000D7019C91FA018081981325C011969C9108
:100390008181981320C0D6018C918F5F8C930E942D
:1003A000190360E170E00E94A5028F5FF80180836D
:1003B0000E94190368E070E00E94A5028F5FD801D7
:1003C00011968C93BFEFE9E6F8E1B150E040F040C0
:1003D000E1F700C00000D6019C9180E8891B21E074
:1003E00030E08F37D0F18091040190910501892B85
:1003F00059F183E0D6018C9311961C9289E0F701A4
:10040000808384E08183FE01E450FF4F98E0908375
:100410008183C650DF4F97E0988389830E94190338
:1004200060E170E00E94A5028F5FD8018C930E946A
:10043000190368E070E00E94A5028F5FF8018183D4
:100440001092050110920401DF91CF911F910F913D
:10045000FF90EF90DF90CF900895E82FF0E0EE0F3F
:10046000FF1FEC0FFD1FD70111964C911197918141
:10047000491312C04C91908149130EC0BFEFE3EDB8
:10048000F0E3B150E040F040E1F700C000003093ED
:1004900005012093040182E88F5FA3CFFC014D99F1
:1004A00005C08181833011F081E081834E9905C0C0
:1004B0008181813011F083E081834C9904C0818176
:1004C000823009F011824F9905C08181882311F093
:1004D00082E0818308950E942D010E9431010E94D3
:1004E0006F0046E051E068E071E088E092E00E9431
:1004F0003A0146E051E068E071E088E092E00E9455
:100500009A002FEF81EE94E0215080409040E1F777
:1005100000C0000088E092E00E944E0268E071E0B6
:1005200088E092E00E94630146E051E068E071E0FB
:1005300088E092E00E94B10146E051E068E071E09D
:1005400088E092E00E949B01D4CF97FB072E16F41F
:10055000009407D077FD09D00E94B90207FC05D0AE
:100560003EF4909581959F4F0895709561957F4FCA
:100570000895AA1BBB1B51E107C0AA1FBB1FA617EA
:10058000B70710F0A61BB70B881F991F5A95A9F73C
:1005900080959095BC01CD0108958F929F92AF9266
:1005A000BF92CF92DF92EF92FF92CF93DF93EC0155
:1005B000688179818A819B81611571058105910529
:1005C00021F464E279ED8BE597E02DE133EF41E032
:1005D00050E00E94290349015A019B01AC01A7EA9E
:1005E000B1E40E9448036B017C01ACEEB4EFA501BD
:1005F00094010E945603DC01CB018C0D9D1DAE1DA4
:10060000BF1DB7FF03C00197A109B0488883998334
:10061000AA83BB839F77DF91CF91FF90EF90DF900C
:10062000CF90BF90AF909F908F9008950E94CD0281
:10063000089580E091E00E94CD020895B0E0A0E02E
:100640008093000190930101A0930201B0930301F4
:100650000895052E97FB1EF400940E94400357FD59
:1006600007D00E945B0307FC03D04EF40C944003B8
:1006700050954095309521953F4F4F4F5F4F0895CE
:1006800090958095709561957F4F8F4F9F4F0895FE
:100690000E947D03A59F900DB49F900DA49F800D97
:1006A000911D11240895B7FF0C9448030E9448033C
:1006B000821B930B0895A1E21A2EAA1BBB1BFD01FE
:1006C0000DC0AA1FBB1FEE1FFF1FA217B307E40731
:1006D000F50720F0A21BB30BE40BF50B661F771F89
:1006E000881F991F1A9469F7609570958095909569
:1006F0009B01AC01BD01CF010895A29FB001B39F42
:10070000C001A39F700D811D1124911DB29F700D1A
:0C071000811D1124911D0895F894FFCF65
:04071C0001000000D8
:00000001FF
